{
    "contractName": "CoShoe",
    "abi": [
        {
            "inputs": [],
            "stateMutability": "nonpayable",
            "type": "constructor"
        },
        {
            "inputs": [
                {
                    "internalType": "string",
                    "name": "_name",
                    "type": "string"
                },
                {
                    "internalType": "string",
                    "name": "_image",
                    "type": "string"
                }
            ],
            "name": "buyShoe",
            "outputs": [],
            "stateMutability": "payable",
            "type": "function"
        },
        {
            "inputs": [
                {
                    "internalType": "address",
                    "name": "caller",
                    "type": "address"
                }
            ],
            "name": "checkPurchases",
            "outputs": [
                {
                    "internalType": "bool[]",
                    "name": "",
                    "type": "bool[]"
                }
            ],
            "stateMutability": "nonpayable",
            "type": "function"
        },
        {
            "inputs": [],
            "name": "minter",
            "outputs": [
                {
                    "internalType": "address",
                    "name": "",
                    "type": "address"
                }
            ],
            "stateMutability": "view",
            "type": "function"
        },
        {
            "inputs": [],
            "name": "noOfTokens",
            "outputs": [
                {
                    "internalType": "uint256",
                    "name": "",
                    "type": "uint256"
                }
            ],
            "stateMutability": "view",
            "type": "function"
        },
        {
            "inputs": [],
            "name": "price",
            "outputs": [
                {
                    "internalType": "uint256",
                    "name": "",
                    "type": "uint256"
                }
            ],
            "stateMutability": "view",
            "type": "function"
        },
        {
            "inputs": [
                {
                    "internalType": "uint256",
                    "name": "",
                    "type": "uint256"
                }
            ],
            "name": "shoe",
            "outputs": [
                {
                    "internalType": "address",
                    "name": "owner",
                    "type": "address"
                },
                {
                    "internalType": "string",
                    "name": "name",
                    "type": "string"
                },
                {
                    "internalType": "string",
                    "name": "image",
                    "type": "string"
                },
                {
                    "internalType": "bool",
                    "name": "sold",
                    "type": "bool"
                }
            ],
            "stateMutability": "view",
            "type": "function"
        },
        {
            "inputs": [],
            "name": "shoesSold",
            "outputs": [
                {
                    "internalType": "uint256",
                    "name": "",
                    "type": "uint256"
                }
            ],
            "stateMutability": "view",
            "type": "function"
        },
        {
            "inputs": [
                {
                    "internalType": "address",
                    "name": "",
                    "type": "address"
                }
            ],
            "name": "tokens",
            "outputs": [
                {
                    "internalType": "uint256",
                    "name": "",
                    "type": "uint256"
                }
            ],
            "stateMutability": "view",
            "type": "function"
        }
    ],
    "bytecode": "60806040526706f05b59d3b20000600255600060035534801561002157600080fd5b50600080546001600160a01b03191633178082556001600160a01b03168152600160205260409020606490556109a28061005c6000396000f3fe60806040526004361061007b5760003560e01c8063a035b1fe1161004e578063a035b1fe14610333578063aeb85bbc14610348578063c141e8eb146103cb578063e4860339146103e05761007b565b806307546172146100805780630e4c7756146100b157806336e9b344146101dd578063540a2f4f14610204575b600080fd5b34801561008c57600080fd5b50610095610413565b604080516001600160a01b039092168252519081900360200190f35b3480156100bd57600080fd5b506100db600480360360208110156100d457600080fd5b5035610422565b60405180856001600160a01b03166001600160a01b03168152602001806020018060200184151515158152602001838103835286818151815260200191508051906020019080838360005b8381101561013e578181015183820152602001610126565b50505050905090810190601f16801561016b5780820380516001836020036101000a031916815260200191505b50838103825285518152855160209182019187019080838360005b8381101561019e578181015183820152602001610186565b50505050905090810190601f1680156101cb5780820380516001836020036101000a031916815260200191505b50965050505050505060405180910390f35b3480156101e957600080fd5b506101f2610581565b60408051918252519081900360200190f35b6103316004803603604081101561021a57600080fd5b81019060208101813564010000000081111561023557600080fd5b82018360208201111561024757600080fd5b8035906020019184600183028401116401000000008311171561026957600080fd5b91908080601f01602080910402602001604051908101604052809392919081815260200183838082843760009201919091525092959493602081019350359150506401000000008111156102bc57600080fd5b8201836020820111156102ce57600080fd5b803590602001918460018302840111640100000000831117156102f057600080fd5b91908080601f01602080910402602001604051908101604052809392919081815260200183838082843760009201919091525092955061059e945050505050565b005b34801561033f57600080fd5b506101f2610763565b34801561035457600080fd5b5061037b6004803603602081101561036b57600080fd5b50356001600160a01b0316610769565b60408051602080825283518183015283519192839290830191858101910280838360005b838110156103b757818101518382015260200161039f565b505050509050019250505060405180910390f35b3480156103d757600080fd5b506101f261089a565b3480156103ec57600080fd5b506101f26004803603602081101561040357600080fd5b50356001600160a01b03166108a0565b6000546001600160a01b031681565b6004818154811061042f57fe5b600091825260209182902060049091020180546001808301805460408051601f60026000199685161561010002969096019093169490940491820187900487028401870190528083526001600160a01b0390931695509293909291908301828280156104dc5780601f106104b1576101008083540402835291602001916104dc565b820191906000526020600020905b8154815290600101906020018083116104bf57829003601f168201915b50505060028085018054604080516020601f600019610100600187161502019094169590950492830185900485028101850190915281815295969594509092509083018282801561056e5780601f106105435761010080835404028352916020019161056e565b820191906000526020600020905b81548152906001019060200180831161055157829003601f168201915b5050506003909301549192505060ff1684565b600080546001600160a01b03168152600160205260409020545b90565b606460035411156105ea576040805162461bcd60e51b8152602060048201526011602482015270536f6c64204f7574206f662053686f657360781b604482015290519081900360640190fd5b6002543414610640576040805162461bcd60e51b815260206004820152601c60248201527f5072696365206f6620612073686f6520697320302e3520657468657200000000604482015290519081900360640190fd5b604080516080810182523381526020808201858152928201849052600160608301819052600480549182018155600081905283517f8a35acfbc15ff81a39ae7d344fd709f28e8600b4aa8c65c6b64bfe7fe36bd19b9290910291820180546001600160a01b0319166001600160a01b03909216919091178155935180519394936106f3937f8a35acfbc15ff81a39ae7d344fd709f28e8600b4aa8c65c6b64bfe7fe36bd19c9093019291909101906108b2565b506040820151805161070f9160028401916020909101906108b2565b50606091909101516003918201805460ff1916911515919091179055600080546001600160a01b03168152600160208190526040808320805460001901905533835290912080548201905581540190555050565b60025481565b60606001600160a01b03821633146107b25760405162461bcd60e51b815260040180806020018281038252602281526020018061094b6022913960400191505060405180910390fd5b60606003546040519080825280602002602001820160405280156107e0578160200160208202803883390190505b50905060005b600354811015610893576000600482815481106107ff57fe5b6000918252602090912060049091020180549091506001600160a01b038681169116141561085c5760038101805460ff19166001908117909155835184908490811061084757fe5b9115156020928302919091019091015261088a565b60038101805460ff19169055825160009084908490811061087957fe5b911515602092830291909101909101525b506001016107e6565b5092915050565b60035481565b60016020526000908152604090205481565b828054600181600116156101000203166002900490600052602060002090601f016020900481019282601f106108f357805160ff1916838001178555610920565b82800160010185558215610920579182015b82811115610920578251825591602001919060010190610905565b5061092c929150610930565b5090565b61059b91905b8082111561092c576000815560010161093656fe636865636b50757263686173657320666f722063616c6c65722066756e6374696f6ea26469706673582212202243a039da4bdecdd57e63be1e616384b3667126d6224fc15ad997a379207b0164736f6c63430006010033",
    "sourcePath": "/Users/derickkazimoto/Desktop/FinTech_and_Cryptocurrencies/CoShoe/contracts/CoShoe.sol",
    "compiler": {
        "name": "solc",
        "version": "0.6.1+commit.e6f7d5a4"
    },
    "functionHashes": {
        "buyShoe(string,string)": "540a2f4f",
        "checkPurchases(address)": "aeb85bbc",
        "minter()": "07546172",
        "noOfTokens()": "36e9b344",
        "price()": "a035b1fe",
        "shoe(uint256)": "0e4c7756",
        "shoesSold()": "c141e8eb",
        "tokens(address)": "e4860339"
    },
    "gasEstimates": {
        "creation": {
            "codeDepositCost": "493200",
            "executionCost": "66467",
            "totalCost": "559667"
        },
        "external": {
            "buyShoe(string,string)": "infinite",
            "checkPurchases(address)": "infinite",
            "minter()": "1038",
            "noOfTokens()": "1928",
            "price()": "998",
            "shoe(uint256)": "infinite",
            "shoesSold()": "1042",
            "tokens(address)": "1190"
        }
    }
}